{
  "address": "0x06C70Db4D9a6bae1DC9c2cB1B3567Eb0faCeB888",
  "abi": [
    {
      "anonymous": false,
      "inputs": [
        {
          "indexed": true,
          "internalType": "address",
          "name": "programAddress",
          "type": "address"
        },
        {
          "indexed": true,
          "internalType": "address",
          "name": "creator",
          "type": "address"
        },
        {
          "indexed": false,
          "internalType": "string",
          "name": "title",
          "type": "string"
        },
        {
          "indexed": false,
          "internalType": "string",
          "name": "description",
          "type": "string"
        },
        {
          "indexed": false,
          "internalType": "string[]",
          "name": "mediaCIDs",
          "type": "string[]"
        },
        {
          "indexed": false,
          "internalType": "uint256",
          "name": "goal",
          "type": "uint256"
        },
        {
          "indexed": false,
          "internalType": "uint256",
          "name": "timestamp",
          "type": "uint256"
        }
      ],
      "name": "ProgramCreated",
      "type": "event"
    },
    {
      "inputs": [
        {
          "internalType": "string",
          "name": "_title",
          "type": "string"
        },
        {
          "internalType": "string",
          "name": "_description",
          "type": "string"
        },
        {
          "internalType": "uint256",
          "name": "_goal",
          "type": "uint256"
        },
        {
          "internalType": "string[]",
          "name": "_mediaCIDs",
          "type": "string[]"
        }
      ],
      "name": "createProgram",
      "outputs": [
        {
          "internalType": "address",
          "name": "",
          "type": "address"
        }
      ],
      "stateMutability": "nonpayable",
      "type": "function"
    },
    {
      "inputs": [
        {
          "internalType": "address",
          "name": "",
          "type": "address"
        },
        {
          "internalType": "uint256",
          "name": "",
          "type": "uint256"
        }
      ],
      "name": "creatorPrograms",
      "outputs": [
        {
          "internalType": "address",
          "name": "",
          "type": "address"
        }
      ],
      "stateMutability": "view",
      "type": "function"
    },
    {
      "inputs": [
        {
          "internalType": "uint256",
          "name": "",
          "type": "uint256"
        }
      ],
      "name": "deployedPrograms",
      "outputs": [
        {
          "internalType": "address",
          "name": "",
          "type": "address"
        }
      ],
      "stateMutability": "view",
      "type": "function"
    },
    {
      "inputs": [
        {
          "internalType": "address",
          "name": "_creator",
          "type": "address"
        }
      ],
      "name": "getCreatorPrograms",
      "outputs": [
        {
          "internalType": "address[]",
          "name": "",
          "type": "address[]"
        }
      ],
      "stateMutability": "view",
      "type": "function"
    },
    {
      "inputs": [],
      "name": "getDeployedPrograms",
      "outputs": [
        {
          "internalType": "address[]",
          "name": "",
          "type": "address[]"
        }
      ],
      "stateMutability": "view",
      "type": "function"
    },
    {
      "inputs": [],
      "name": "getProgramCount",
      "outputs": [
        {
          "internalType": "uint256",
          "name": "",
          "type": "uint256"
        }
      ],
      "stateMutability": "view",
      "type": "function"
    }
  ],
  "transactionHash": "0x9e1d025c95b71133c19e92c2785f0601733d1c8297f7c303a7b38ca99fb4a35b",
  "args": [],
  "numDeployments": 1,
  "solcInputHash": "065c95dd1bef72a82ea406fcc3588a08",
  "bytecode": "0x6080604052348015600f57600080fd5b506141f68061001f6000396000f3fe608060405234801561001057600080fd5b50600436106100625760003560e01c806326844524146100675780638304bc5c1461007d57806395016620146100925780639c82dd30146100bd578063ab86e1ae146100d0578063f9ea255f146100e3575b600080fd5b6000546040519081526020015b60405180910390f35b6100856100f6565b60405161007491906103cd565b6100a56100a03660046104d0565b610158565b6040516001600160a01b039091168152602001610074565b6100a56100cb36600461061f565b6102e8565b6100a56100de366004610649565b610320565b6100856100f1366004610662565b61034a565b6060600080548060200260200160405190810160405280929190818152602001828054801561014e57602002820191906000526020600020905b81546001600160a01b03168152600190910190602001808311610130575b5050505050905090565b60008083116101a65760405162461bcd60e51b8152602060048201526015602482015274476f616c206d75737420626520706f73697469766560581b60448201526064015b60405180910390fd5b60008551116101e85760405162461bcd60e51b815260206004820152600e60248201526d151a5d1b19481c995c5d5a5c995960921b604482015260640161019d565b600085858585336040516101fb906103c0565b610209959493929190610726565b604051809103906000f080158015610225573d6000803e3d6000fd5b5060008054600181810183557f290decd9548b62a8d60345a988386fc84ba6bc95484008f6362f93160ef3e56390910180546001600160a01b0385166001600160a01b0319918216811790925533808552602084815260408087208054968701815587529520909301805490911682179055915192935083929091907fc056323233c0621d25b5691f0500bb3082c84a76b362559ab612b3467622ea78906102d6908b908b908a908c904290610780565b60405180910390a39695505050505050565b6001602052816000526040600020818154811061030457600080fd5b6000918252602090912001546001600160a01b03169150829050565b6000818154811061033057600080fd5b6000918252602090912001546001600160a01b0316905081565b6001600160a01b0381166000908152600160209081526040918290208054835181840281018401909452808452606093928301828280156103b457602002820191906000526020600020905b81546001600160a01b03168152600190910190602001808311610396575b50505050509050919050565b6139f2806107cf83390190565b602080825282518282018190526000918401906040840190835b8181101561040e5783516001600160a01b03168352602093840193909201916001016103e7565b509095945050505050565b634e487b7160e01b600052604160045260246000fd5b604051601f8201601f1916810167ffffffffffffffff8111828210171561045857610458610419565b604052919050565b600082601f83011261047157600080fd5b813567ffffffffffffffff81111561048b5761048b610419565b61049e601f8201601f191660200161042f565b8181528460208386010111156104b357600080fd5b816020850160208301376000918101602001919091529392505050565b600080600080608085870312156104e657600080fd5b843567ffffffffffffffff8111156104fd57600080fd5b61050987828801610460565b945050602085013567ffffffffffffffff81111561052657600080fd5b61053287828801610460565b93505060408501359150606085013567ffffffffffffffff81111561055657600080fd5b8501601f8101871361056757600080fd5b803567ffffffffffffffff81111561058157610581610419565b8060051b6105916020820161042f565b9182526020818401810192908101908a8411156105ad57600080fd5b6020850192505b838310156105f457823567ffffffffffffffff8111156105d357600080fd5b6105e28c602083890101610460565b835250602092830192909101906105b4565b979a9699509497505050505050565b80356001600160a01b038116811461061a57600080fd5b919050565b6000806040838503121561063257600080fd5b61063b83610603565b946020939093013593505050565b60006020828403121561065b57600080fd5b5035919050565b60006020828403121561067457600080fd5b61067d82610603565b9392505050565b6000815180845260005b818110156106aa5760208185018101518683018201520161068e565b506000602082860101526020601f19601f83011685010191505092915050565b600082825180855260208501945060208160051b8301016020850160005b8381101561071a57601f19858403018852610704838351610684565b60209889019890935091909101906001016106e8565b50909695505050505050565b60a08152600061073960a0830188610684565b828103602084015261074b8188610684565b9050856040840152828103606084015261076581866106ca565b91505060018060a01b03831660808301529695505050505050565b60a08152600061079360a0830188610684565b82810360208401526107a58188610684565b905082810360408401526107b981876106ca565b6060840195909552505060800152939250505056fe608060405234801561001057600080fd5b506040516139f23803806139f283398101604081905261002f91610395565b6001600055826100865760405162461bcd60e51b815260206004820152601560248201527f476f616c206d75737420626520706f736974697665000000000000000000000060448201526064015b60405180910390fd5b60008551116100c85760405162461bcd60e51b815260206004820152600e60248201526d151a5d1b19481c995c5d5a5c995960921b604482015260640161007d565b6001600160a01b03811661011e5760405162461bcd60e51b815260206004820152601760248201527f496e76616c69642063726561746f722061646472657373000000000000000000604482015260640161007d565b600261012a8682610563565b5060036101378582610563565b50600683905581516101509060049060208501906101df565b50600580546001600160a01b0319166001600160a01b0383161790556007805460ff1916905542600881905561018a906276a70090610621565b60098190556040516001600160a01b038316917fbdcad20ed340ab4cfa126c550be08b57e5dba7ba5362df7e4c345a8e74421294916101cd918991889190610648565b60405180910390a2505050505061068a565b828054828255906000526020600020908101928215610225579160200282015b8281111561022557825182906102159082610563565b50916020019190600101906101ff565b50610231929150610235565b5090565b808211156102315760006102498282610252565b50600101610235565b50805461025e906104da565b6000825580601f1061026e575050565b601f01602090049060005260206000209081019061028c919061028f565b50565b5b808211156102315760008155600101610290565b634e487b7160e01b600052604160045260246000fd5b604051601f8201601f191681016001600160401b03811182821017156102e2576102e26102a4565b604052919050565b60005b838110156103055781810151838201526020016102ed565b50506000910152565b600082601f83011261031f57600080fd5b81516001600160401b03811115610338576103386102a4565b61034b601f8201601f19166020016102ba565b81815284602083860101111561036057600080fd5b6103718260208301602087016102ea565b949350505050565b80516001600160a01b038116811461039057600080fd5b919050565b600080600080600060a086880312156103ad57600080fd5b85516001600160401b038111156103c357600080fd5b6103cf8882890161030e565b602088015190965090506001600160401b038111156103ed57600080fd5b6103f98882890161030e565b60408801516060890151919650945090506001600160401b0381111561041e57600080fd5b8601601f8101881361042f57600080fd5b80516001600160401b03811115610448576104486102a4565b8060051b610458602082016102ba565b9182526020818401810192908101908b84111561047457600080fd5b6020850192505b838310156104ba5782516001600160401b0381111561049957600080fd5b6104a88d60208389010161030e565b8352506020928301929091019061047b565b80965050505050506104ce60808701610379565b90509295509295909350565b600181811c908216806104ee57607f821691505b60208210810361050e57634e487b7160e01b600052602260045260246000fd5b50919050565b601f82111561055e57806000526020600020601f840160051c8101602085101561053b5750805b601f840160051c820191505b8181101561055b5760008155600101610547565b50505b505050565b81516001600160401b0381111561057c5761057c6102a4565b6105908161058a84546104da565b84610514565b6020601f8211600181146105c457600083156105ac5750848201515b600019600385901b1c1916600184901b17845561055b565b600084815260208120601f198516915b828110156105f457878501518255602094850194600190920191016105d4565b50848210156106125786840151600019600387901b60f8161c191681555b50505050600190811b01905550565b8082018082111561064257634e487b7160e01b600052601160045260246000fd5b92915050565b60608152600084518060608401526106678160808501602089016102ea565b60208301949094525060408101919091526080601f909201601f19160101919050565b613359806106996000396000f3fe6080604052600436106102555760003560e01c80636d218e4811610139578063b1610d7e116100b6578063c6612dc71161007a578063c6612dc7146107b2578063c9d27afe146107e7578063cf09e0d014610807578063d7bb99ba1461081d578063dda0a81a14610825578063fb1a002a14610847576102a7565b8063b1610d7e14610717578063bc3f931f1461072e578063bd9122581461074e578063c4d53f3d14610765578063c58343ef14610785576102a7565b80638456cb59116100fd5780638456cb591461064d5780638796ba8c14610662578063947e2dfa14610682578063a83b4473146106ad578063af157c19146106f5576102a7565b80636d218e481461059c5780637284e416146105d55780637df7f3be146105ea5780637ed3deba1461060a57806382fde09314610637576102a7565b806340193883116101d2578063516dde4311610196578063516dde431461050e5780635430c25414610524578063592fb924146105445780635c975abb146105595780635f60f485146105715780636a84a98514610586576102a7565b8063401938831461048c57806345e6b4c2146104a25780634a6f49df146104b75780634a79d50c146104d75780634e35e69c146104f9576102a7565b8063200d2ed211610219578063200d2ed2146103dd578063205b1946146104045780633ab34290146104345780633cb5d100146104575780633f4ba83a14610477576102a7565b806302d05d3f146102e457806303441006146103215780630a14439114610343578063110f8874146103835780631cee070014610398576102a7565b366102a75760405162461bcd60e51b815260206004820152601960248201527f55736520636f6e7472696275746528292066756e6374696f6e0000000000000060448201526064015b60405180910390fd5b60405162461bcd60e51b8152602060048201526012602482015271119d5b98dd1a5bdb881b9bdd08199bdd5b9960721b604482015260640161029e565b3480156102f057600080fd5b50600554610304906001600160a01b031681565b6040516001600160a01b0390911681526020015b60405180910390f35b34801561032d57600080fd5b5061034161033c3660046129d0565b610869565b005b34801561034f57600080fd5b5061037361035e366004612a05565b600c6020526000908152604090205460ff1681565b6040519015158152602001610318565b34801561038f57600080fd5b50610341610b69565b3480156103a457600080fd5b506103b86103b33660046129d0565b610d26565b604080516001600160a01b039094168452602084019290925290820152606001610318565b3480156103e957600080fd5b506007546103f79060ff1681565b6040516103189190612a4d565b34801561041057600080fd5b5061037361041f366004612a05565b600f6020526000908152604090205460ff1681565b34801561044057600080fd5b50610449603c81565b604051908152602001610318565b34801561046357600080fd5b506103046104723660046129d0565b610d63565b34801561048357600080fd5b50610341610d8d565b34801561049857600080fd5b5061044960065481565b3480156104ae57600080fd5b50610449600181565b3480156104c357600080fd5b506103416104d2366004612bbf565b610dbf565b3480156104e357600080fd5b506104ec610eb8565b6040516103189190612c4c565b34801561050557600080fd5b50610449601e81565b34801561051a57600080fd5b5061044960095481565b34801561053057600080fd5b5061034161053f366004612c5f565b610f46565b34801561055057600080fd5b506103416111d6565b34801561056557600080fd5b5060015460ff16610373565b34801561057d57600080fd5b506103416112e1565b34801561059257600080fd5b50610449600b5481565b3480156105a857600080fd5b506103736105b7366004612a05565b6001600160a01b03166000908152600c602052604090205460ff1690565b3480156105e157600080fd5b506104ec61139f565b3480156105f657600080fd5b506103736106053660046129d0565b6113ac565b34801561061657600080fd5b50610449610625366004612a05565b60106020526000908152604090205481565b34801561064357600080fd5b50610449600a5481565b34801561065957600080fd5b50610341611479565b34801561066e57600080fd5b5061044961067d3660046129d0565b6114ab565b34801561068e57600080fd5b506106976114cc565b6040516103189a99989796959493929190612d59565b3480156106b957600080fd5b506106e86106c8366004612de7565b600e60209081526000928352604080842090915290825290205460ff1681565b6040516103189190612e13565b34801561070157600080fd5b5061070a611720565b6040516103189190612e27565b34801561072357600080fd5b5061044962093a8081565b34801561073a57600080fd5b506106e8610749366004612de7565b611782565b34801561075a57600080fd5b506104496276a70081565b34801561077157600080fd5b506104ec6107803660046129d0565b6117e0565b34801561079157600080fd5b506107a56107a03660046129d0565b61180b565b6040516103189190612f2a565b3480156107be57600080fd5b506107d26107cd3660046129d0565b611ac0565b60405161031899989796959493929190612f3d565b3480156107f357600080fd5b50610341610802366004612fa9565b611c1d565b34801561081357600080fd5b5061044960085481565b610341611f38565b34801561083157600080fd5b5061083a6122f3565b6040516103189190612fde565b34801561085357600080fd5b5061085c612375565b6040516103189190613038565b6005546001600160a01b031633146108935760405162461bcd60e51b815260040161029e9061309d565b600160075460ff1660048111156108ac576108ac612a27565b146108ee5760405162461bcd60e51b815260206004820152601260248201527150726f6772616d206e6f742061637469766560701b604482015260640161029e565b6108f661269e565b806000811180156109095750600b548111155b6109255760405162461bcd60e51b815260040161029e906130d4565b6000828152600d602052604090206001600782015460ff16600481111561094e5761094e612a27565b146109925760405162461bcd60e51b815260206004820152601460248201527314995c5d595cdd081b9bdd08185c1c1c9bdd995960621b604482015260640161029e565b80600301544710156109db5760405162461bcd60e51b8152602060048201526012602482015271496e73756666696369656e742066756e647360701b604482015260640161029e565b60055460038201546040516000926001600160a01b031691908381818185875af1925050503d8060008114610a2c576040519150601f19603f3d011682016040523d82523d6000602084013e610a31565b606091505b5050905080610a745760405162461bcd60e51b815260206004820152600f60248201526e151c985b9cd9995c8819985a5b1959608a1b604482015260640161029e565b60078201805460ff191660041790556005546003830154604080516001600160a01b039093168352602083019190915285917f6e3c6096795c8298a218b2cfb8bde42726ff7c9a3d27b4d3ba41ab7f74feb5fb910160405180910390a260038201546040805191825242602083015285917f10b486a111010a693b84457f0b6f846b84c8f0ba19ca4f64efce751fb6a64271910160405180910390a247600003610b59576007805460ff191660041790556040514281527f25092bad5af7d63822f060ef91cf8348ed4e41dd0cbae628763c484f90f846489060200160405180910390a15b505050610b666001600055565b50565b610b7161269e565b600360075460ff166004811115610b8a57610b8a612a27565b1480610bac5750600260075460ff166004811115610baa57610baa612a27565b145b610bf05760405162461bcd60e51b8152602060048201526015602482015274526566756e6473206e6f7420617661696c61626c6560581b604482015260640161029e565b3360009081526010602052604090205480610c435760405162461bcd60e51b81526020600482015260136024820152724e6f20726566756e6420617661696c61626c6560681b604482015260640161029e565b336000818152601060205260408082208290555190919083908381818185875af1925050503d8060008114610c94576040519150601f19603f3d011682016040523d82523d6000602084013e610c99565b606091505b5050905080610ce35760405162461bcd60e51b81526020600482015260166024820152751499599d5b99081d1c985b9cd9995c8819985a5b195960521b604482015260640161029e565b60405182815233907f3367befd2b2f39615cd79917c2153263c4af1d3945ec003e5d5bfc13a8d858339060200160405180910390a25050610d246001600055565b565b60128181548110610d3657600080fd5b60009182526020909120600390910201805460018201546002909201546001600160a01b03909116925083565b60118181548110610d7357600080fd5b6000918252602090912001546001600160a01b0316905081565b6005546001600160a01b03163314610db75760405162461bcd60e51b815260040161029e9061309d565b610d246126c8565b6005546001600160a01b03163314610de95760405162461bcd60e51b815260040161029e9061309d565b81600081118015610dfc5750600b548111155b610e185760405162461bcd60e51b815260040161029e906130d4565b6000838152600d60205260408120905b8351811015610e795781600401848281518110610e4757610e47613100565b60209081029190910181015182546001810184556000938452919092200190610e709082613198565b50600101610e28565b50837f35b81aa1869164ccd247889853f089a3f1accc9c63e138e4966b150fc3fe1bb984604051610eaa9190613257565b60405180910390a250505050565b60028054610ec590613116565b80601f0160208091040260200160405190810160405280929190818152602001828054610ef190613116565b8015610f3e5780601f10610f1357610100808354040283529160200191610f3e565b820191906000526020600020905b815481529060010190602001808311610f2157829003601f168201915b505050505081565b6005546001600160a01b03163314610f705760405162461bcd60e51b815260040161029e9061309d565b600160075460ff166004811115610f8957610f89612a27565b14610fcb5760405162461bcd60e51b815260206004820152601260248201527150726f6772616d206e6f742061637469766560701b604482015260640161029e565b610fd361269e565b60008451116110155760405162461bcd60e51b815260206004820152600e60248201526d151a5d1b19481c995c5d5a5c995960921b604482015260640161029e565b6000821161105e5760405162461bcd60e51b815260206004820152601660248201527556616c7565206d75737420626520706f73697469766560501b604482015260640161029e565b606461106b601e47613280565b611075919061329d565b8211156110c45760405162461bcd60e51b815260206004820152601e60248201527f45786365656473206d6178696d756d207265717565737420616d6f756e740000604482015260640161029e565b600b80549060006110d4836132bf565b9091555050600b546000818152600d60205260409020908155600181016110fb8682613198565b506002810161110a8582613198565b5060038101839055815161112790600483019060208501906128af565b5060078101805460ff19169055426008820181905561114a9062093a80906132d8565b60098201908155600b54601380546001810182556000919091527f66de8ffda797e3de9c05e8fc57b3bf0ec28a930d40b0d285d93c06501cf6a0900181905590546040517fc792ca65a2a50ca72384832ef7dc8f74374e0d26d2768f69cfe87e6b22922275916111bd91899188916132eb565b60405180910390a2506111d06001600055565b50505050565b6005546001600160a01b031633146112005760405162461bcd60e51b815260040161029e9061309d565b61120861269e565b600060075460ff16600481111561122157611221612a27565b14806112435750600160075460ff16600481111561124157611241612a27565b145b6112875760405162461bcd60e51b815260206004820152601560248201527443616e6e6f742063616e63656c2070726f6772616d60581b604482015260640161029e565b4761129061271a565b6007805460ff1916600317905560408051428152602081018390527f19f9cba638a1c131ca28ff5e163d61d64b1be0796a345aeb8c0f6716ba67955a910160405180910390a150610d246001600055565b6009544290811080159061130b5750600060075460ff16600481111561130957611309612a27565b145b156113595761131861271a565b6007805460ff191660021790556040518181527f3f175930f2d5cee994eb20531a5226f029511908fdeefb63e178a57061db653b9060200160405180910390a15b60005b60135481101561139b5760006013828154811061137b5761137b613100565b90600052602060002001549050611391816113ac565b505060010161135c565b5050565b60038054610ec590613116565b6000816000811180156113c15750600b548111155b6113dd5760405162461bcd60e51b815260040161029e906130d4565b6000838152600d60205260408120904290600783015460ff16600481111561140757611407612a27565b148015611418575080826009015410155b1561142857600093505050611473565b60078201805460ff1916600317905560405181815285907f6bdd24364ea257bc2fc44b73a2b568ad948e3a1e4e7a2a26fe3443f117dd7ea69060200160405180910390a26001935050505b50919050565b6005546001600160a01b031633146114a35760405162461bcd60e51b815260040161029e9061309d565b610d24612747565b601381815481106114bb57600080fd5b600091825260209091200154905081565b60608060606000806000806000806000600260036004600560009054906101000a90046001600160a01b031660065447600760009054906101000a900460ff16600a5460085460095489805461152190613116565b80601f016020809104026020016040519081016040528092919081815260200182805461154d90613116565b801561159a5780601f1061156f5761010080835404028352916020019161159a565b820191906000526020600020905b81548152906001019060200180831161157d57829003601f168201915b505050505099508880546115ad90613116565b80601f01602080910402602001604051908101604052809291908181526020018280546115d990613116565b80156116265780601f106115fb57610100808354040283529160200191611626565b820191906000526020600020905b81548152906001019060200180831161160957829003601f168201915b5050505050985087805480602002602001604051908101604052809291908181526020016000905b828210156116fa57838290600052602060002001805461166d90613116565b80601f016020809104026020016040519081016040528092919081815260200182805461169990613116565b80156116e65780601f106116bb576101008083540402835291602001916116e6565b820191906000526020600020905b8154815290600101906020018083116116c957829003601f168201915b50505050508152602001906001019061164e565b505050509750995099509950995099509950995099509950995090919293949596979899565b6060601180548060200260200160405190810160405280929190818152602001828054801561177857602002820191906000526020600020905b81546001600160a01b0316815260019091019060200180831161175a575b5050505050905090565b6000826000811180156117975750600b548111155b6117b35760405162461bcd60e51b815260040161029e906130d4565b50506000918252600e602090815260408084206001600160a01b0393909316845291905290205460ff1690565b600481815481106117f057600080fd5b906000526020600020016000915090508054610ec590613116565b611813612905565b816000811180156118265750600b548111155b6118425760405162461bcd60e51b815260040161029e906130d4565b6000838152600d6020908152604091829020825161014081019093528054835260018101805491939283019161187790613116565b80601f01602080910402602001604051908101604052809291908181526020018280546118a390613116565b80156118f05780601f106118c5576101008083540402835291602001916118f0565b820191906000526020600020905b8154815290600101906020018083116118d357829003601f168201915b5050505050815260200182600201805461190990613116565b80601f016020809104026020016040519081016040528092919081815260200182805461193590613116565b80156119825780601f1061195757610100808354040283529160200191611982565b820191906000526020600020905b81548152906001019060200180831161196557829003601f168201915b505050505081526020018260030154815260200182600401805480602002602001604051908101604052809291908181526020016000905b82821015611a665783829060005260206000200180546119d990613116565b80601f0160208091040260200160405190810160405280929190818152602001828054611a0590613116565b8015611a525780601f10611a2757610100808354040283529160200191611a52565b820191906000526020600020905b815481529060010190602001808311611a3557829003601f168201915b5050505050815260200190600101906119ba565b505050908252506005830154602082015260068301546040820152600783015460609091019060ff166004811115611aa057611aa0612a27565b815260200182600801548152602001826009015481525092505050919050565b600d6020526000908152604090208054600182018054919291611ae290613116565b80601f0160208091040260200160405190810160405280929190818152602001828054611b0e90613116565b8015611b5b5780601f10611b3057610100808354040283529160200191611b5b565b820191906000526020600020905b815481529060010190602001808311611b3e57829003601f168201915b505050505090806002018054611b7090613116565b80601f0160208091040260200160405190810160405280929190818152602001828054611b9c90613116565b8015611be95780601f10611bbe57610100808354040283529160200191611be9565b820191906000526020600020905b815481529060010190602001808311611bcc57829003601f168201915b505050600384015460058501546006860154600787015460088801546009909801549697939692955090935060ff16919089565b81600081118015611c305750600b548111155b611c4c5760405162461bcd60e51b815260040161029e906130d4565b336000908152600c602052604090205460ff16611c9d5760405162461bcd60e51b815260206004820152600f60248201526e2737ba1030b71030b8383937bb32b960891b604482015260640161029e565b611ca561269e565b6000838152600d6020526040812090600782015460ff166004811115611ccd57611ccd612a27565b14611d105760405162461bcd60e51b815260206004820152601360248201527252657175657374206e6f742070656e64696e6760681b604482015260640161029e565b611d19846113ac565b15611d5c5760405162461bcd60e51b8152602060048201526013602482015272159bdd1a5b99c81c195c9a5bd908195b991959606a1b604482015260640161029e565b6000848152600e6020908152604080832033845290915281205460ff166002811115611d8a57611d8a612a27565b14611dc75760405162461bcd60e51b815260206004820152600d60248201526c105b1c9958591e481d9bdd1959609a1b604482015260640161029e565b8215611e0b576000848152600e602090815260408083203384529091528120805460ff1916600117905560058201805491611e01836132bf565b9190505550611e45565b6000848152600e602090815260408083203384529091528120805460ff1916600217905560068201805491611e3f836132bf565b91905055505b6040518315158152339085907fe71fcdac32df1877c1700e7bda2a03157e20993363a28fc35ac495cefc76e4d49060200160405180910390a360006064603c600a54611e919190613280565b611e9c9060636132d8565b611ea6919061329d565b9050600082600601548360050154611ebe91906132d8565b9050600082846005015410611ed557506001611f16565b82600a54611ee39190613310565b84600601541115611ef657506001611f16565b600a548210611f0757506001611f16565b83600901544210611f16575060015b8015611f2557611f2587612782565b50505050611f336001600055565b505050565b611f4061269e565b6009544210611f835760405162461bcd60e51b815260206004820152600f60248201526e141c9bd9dc985b48195e1c1a5c9959608a1b604482015260640161029e565b611f8b612868565b60003411611fdb5760405162461bcd60e51b815260206004820152601d60248201527f436f6e747269627574696f6e206d75737420626520706f736974697665000000604482015260640161029e565b600060075460ff166004811115611ff457611ff4612a27565b14806120165750600160075460ff16600481111561201457612014612a27565b145b61205b5760405162461bcd60e51b8152602060048201526016602482015275496e76616c69642070726f6772616d2073746174757360501b604482015260640161029e565b6000806064600160065461206f9190613280565b612079919061329d565b3360009081526010602052604081208054929350349290919061209d9084906132d8565b909155505060408051606081018252338082523460208084019182524284860190815260128054600181018255600091825295517fbb8a6a4669ba250d26cd7a459eca9d215f8307e33aebe50379bc5a3617ec3444600390970296870180546001600160a01b0319166001600160a01b0390921691909117905592517fbb8a6a4669ba250d26cd7a459eca9d215f8307e33aebe50379bc5a3617ec3445860155517fbb8a6a4669ba250d26cd7a459eca9d215f8307e33aebe50379bc5a3617ec344690940193909355908152600f909152205460ff166121d2576011805460018181019092557f31ecc21a745e3968a04e9570e4425bc18fa8019c68028196b546d1669c200c680180546001600160a01b031916339081179091556000908152600f60205260409020805460ff191690911790555b3360009081526010602052604090205481118015906122015750336000908152600c602052604090205460ff16155b1561223857336000908152600c60205260408120805460ff19166001179055600a80549161222e836132bf565b9190505550600191505b60408051348152831515602082015233917f5668a6b5e4a1f97d2c7d98e7f433e0ae888d3e6301a750d79a9cf51a569c2845910160405180910390a2600654471015801561229c5750600060075460ff16600481111561229a5761229a612a27565b145b156122e7576007805460ff19166001179055604080514281524760208201527f1a25319b277ddbfb36d99edecb8ab46acadc9e612dd17248d97ef20082296320910160405180910390a15b5050610d246001600055565b60606012805480602002602001604051908101604052809291908181526020016000905b8282101561236c576000848152602090819020604080516060810182526003860290920180546001600160a01b0316835260018082015484860152600290910154918301919091529083529092019101612317565b50505050905090565b60135460609060009067ffffffffffffffff81111561239657612396612a60565b6040519080825280602002602001820160405280156123cf57816020015b6123bc612905565b8152602001906001900390816123b45790505b50905060005b601354811015611473576000600d6000601384815481106123f8576123f8613100565b9060005260206000200154815260200190815260200160002090506040518061014001604052808260000154815260200182600101805461243890613116565b80601f016020809104026020016040519081016040528092919081815260200182805461246490613116565b80156124b15780601f10612486576101008083540402835291602001916124b1565b820191906000526020600020905b81548152906001019060200180831161249457829003601f168201915b505050505081526020018260020180546124ca90613116565b80601f01602080910402602001604051908101604052809291908181526020018280546124f690613116565b80156125435780601f1061251857610100808354040283529160200191612543565b820191906000526020600020905b81548152906001019060200180831161252657829003601f168201915b505050505081526020018260030154815260200182600401805480602002602001604051908101604052809291908181526020016000905b8282101561262757838290600052602060002001805461259a90613116565b80601f01602080910402602001604051908101604052809291908181526020018280546125c690613116565b80156126135780601f106125e857610100808354040283529160200191612613565b820191906000526020600020905b8154815290600101906020018083116125f657829003601f168201915b50505050508152602001906001019061257b565b505050908252506005830154602082015260068301546040820152600783015460609091019060ff16600481111561266157612661612a27565b815260200182600801548152602001826009015481525083838151811061268a5761268a613100565b6020908102919091010152506001016123d5565b6002600054036126c157604051633ee5aeb560e01b815260040160405180910390fd5b6002600055565b6126d061288c565b6001805460ff191690557f5db9ee0a495bf2e6ff9c91a7834c1ba4fdd244a5e8aa4e537bd38aeae4b073aa335b6040516001600160a01b03909116815260200160405180910390a1565b60405130907f11d32e56f00e43874b350e9cb639e24e0d6a518a3b6b731c567062f1653c9b5290600090a2565b61274f612868565b6001805460ff1916811790557f62e78cea01bee320cd4e420270b5ea74000d11b0c9f74754ebdbfc544b05a258336126fd565b6000818152600d60205260408120600a5490910361279e575050565b6000816006015482600501546127b491906132d8565b9050600081836005015460646127ca9190613280565b6127d4919061329d565b9050603c81106128275760078301805460ff1916600117905560405142815284907f99593786774c6f33049716fd956b1672f46813adf0f67f51f81345b36ba0b8479060200160405180910390a26111d0565b60078301805460ff1916600217905560405142815284907f83174f77f9261d2e9831d002ea903948abc40d4eaf8dbcc5849ada2e03d6615490602001610eaa565b60015460ff1615610d245760405163d93c066560e01b815260040160405180910390fd5b60015460ff16610d2457604051638dfc202b60e01b815260040160405180910390fd5b8280548282559060005260206000209081019282156128f5579160200282015b828111156128f557825182906128e59082613198565b50916020019190600101906128cf565b50612901929150612969565b5090565b604051806101400160405280600081526020016060815260200160608152602001600081526020016060815260200160008152602001600081526020016000600481111561295557612955612a27565b815260200160008152602001600081525090565b8082111561290157600061297d8282612986565b50600101612969565b50805461299290613116565b6000825580601f106129a2575050565b601f016020900490600052602060002090810190610b6691905b8082111561290157600081556001016129bc565b6000602082840312156129e257600080fd5b5035919050565b80356001600160a01b0381168114612a0057600080fd5b919050565b600060208284031215612a1757600080fd5b612a20826129e9565b9392505050565b634e487b7160e01b600052602160045260246000fd5b60058110610b6657610b66612a27565b60208101612a5a83612a3d565b91905290565b634e487b7160e01b600052604160045260246000fd5b604051601f8201601f1916810167ffffffffffffffff81118282101715612a9f57612a9f612a60565b604052919050565b600082601f830112612ab857600080fd5b813567ffffffffffffffff811115612ad257612ad2612a60565b612ae5601f8201601f1916602001612a76565b818152846020838601011115612afa57600080fd5b816020850160208301376000918101602001919091529392505050565b600082601f830112612b2857600080fd5b813567ffffffffffffffff811115612b4257612b42612a60565b8060051b612b5260208201612a76565b91825260208185018101929081019086841115612b6e57600080fd5b6020860192505b83831015612bb557823567ffffffffffffffff811115612b9457600080fd5b612ba3886020838a0101612aa7565b83525060209283019290910190612b75565b9695505050505050565b60008060408385031215612bd257600080fd5b82359150602083013567ffffffffffffffff811115612bf057600080fd5b612bfc85828601612b17565b9150509250929050565b6000815180845260005b81811015612c2c57602081850181015186830182015201612c10565b506000602082860101526020601f19601f83011685010191505092915050565b602081526000612a206020830184612c06565b60008060008060808587031215612c7557600080fd5b843567ffffffffffffffff811115612c8c57600080fd5b612c9887828801612aa7565b945050602085013567ffffffffffffffff811115612cb557600080fd5b612cc187828801612aa7565b93505060408501359150606085013567ffffffffffffffff811115612ce557600080fd5b612cf187828801612b17565b91505092959194509250565b600082825180855260208501945060208160051b8301016020850160005b83811015612d4d57601f19858403018852612d37838351612c06565b6020988901989093509190910190600101612d1b565b50909695505050505050565b61014081526000612d6e61014083018d612c06565b8281036020840152612d80818d612c06565b90508281036040840152612d94818c612cfd565b6001600160a01b038b166060850152608084018a905260a084018990529150612dbe905086612a3d565b8560c08301528460e083015283610100830152826101208301529b9a5050505050505050505050565b60008060408385031215612dfa57600080fd5b82359150612e0a602084016129e9565b90509250929050565b6020810160038310612a5a57612a5a612a27565b602080825282518282018190526000918401906040840190835b81811015612e685783516001600160a01b0316835260209384019390920191600101612e41565b509095945050505050565b612e7c81612a3d565b9052565b80518252600060208201516101406020850152612ea1610140850182612c06565b905060408301518482036040860152612eba8282612c06565b9150506060830151606085015260808301518482036080860152612ede8282612cfd565b91505060a083015160a085015260c083015160c085015260e0830151612f0760e0860182612e73565b506101008301516101008501526101208301516101208501528091505092915050565b602081526000612a206020830184612e80565b89815261012060208201526000612f5861012083018b612c06565b8281036040840152612f6a818b612c06565b9150508760608301528660808301528560a0830152612f8885612a3d565b8460c08301528360e0830152826101008301529a9950505050505050505050565b60008060408385031215612fbc57600080fd5b8235915060208301358015158114612fd357600080fd5b809150509250929050565b602080825282518282018190526000918401906040840190835b81811015612e6857835180516001600160a01b03168452602080820151818601526040918201519185019190915290930192606090920191600101612ff8565b6000602082016020835280845180835260408501915060408160051b86010192506020860160005b8281101561309157603f1987860301845261307c858351612e80565b94506020938401939190910190600101613060565b50929695505050505050565b60208082526017908201527f4e6f74207468652070726f6772616d2063726561746f72000000000000000000604082015260600190565b602080825260129082015271125b9d985b1a59081c995c5d595cdd08125160721b604082015260600190565b634e487b7160e01b600052603260045260246000fd5b600181811c9082168061312a57607f821691505b60208210810361147357634e487b7160e01b600052602260045260246000fd5b601f821115611f3357806000526020600020601f840160051c810160208510156131715750805b601f840160051c820191505b81811015613191576000815560010161317d565b5050505050565b815167ffffffffffffffff8111156131b2576131b2612a60565b6131c6816131c08454613116565b8461314a565b6020601f8211600181146131fa57600083156131e25750848201515b600019600385901b1c1916600184901b178455613191565b600084815260208120601f198516915b8281101561322a578785015182556020948501946001909201910161320a565b50848210156132485786840151600019600387901b60f8161c191681555b50505050600190811b01905550565b602081526000612a206020830184612cfd565b634e487b7160e01b600052601160045260246000fd5b80820281158282048414176132975761329761326a565b92915050565b6000826132ba57634e487b7160e01b600052601260045260246000fd5b500490565b6000600182016132d1576132d161326a565b5060010190565b808201808211156132975761329761326a565b6060815260006132fe6060830186612c06565b60208301949094525060400152919050565b818103818111156132975761329761326a56fea2646970667358221220d265c6066f1bb1373fa4d1dc69258aaf7292b727da6daf4184982f3860343e7164736f6c634300081e0033a2646970667358221220f2af72fb1c606ff134ed2c2823e48e0e1155b7652590bb469604c31a0aabb90c64736f6c634300081e0033",
  "devdoc": {
    "kind": "dev",
    "methods": {},
    "version": 1
  },
  "userdoc": {
    "kind": "user",
    "methods": {},
    "version": 1
  },
  "storageLayout": {
    "storage": [
      {
        "astId": 1741,
        "contract": "contracts/ScholarshipProgramFactory.sol:ScholarshipProgramFactory",
        "label": "deployedPrograms",
        "offset": 0,
        "slot": "0",
        "type": "t_array(t_address)dyn_storage"
      },
      {
        "astId": 1746,
        "contract": "contracts/ScholarshipProgramFactory.sol:ScholarshipProgramFactory",
        "label": "creatorPrograms",
        "offset": 0,
        "slot": "1",
        "type": "t_mapping(t_address,t_array(t_address)dyn_storage)"
      }
    ],
    "types": {
      "t_address": {
        "encoding": "inplace",
        "label": "address",
        "numberOfBytes": "20"
      },
      "t_array(t_address)dyn_storage": {
        "base": "t_address",
        "encoding": "dynamic_array",
        "label": "address[]",
        "numberOfBytes": "32"
      },
      "t_mapping(t_address,t_array(t_address)dyn_storage)": {
        "encoding": "mapping",
        "key": "t_address",
        "label": "mapping(address => address[])",
        "numberOfBytes": "32",
        "value": "t_array(t_address)dyn_storage"
      }
    }
  }
}